{
  "_format": "hh-sol-artifact-1",
  "contractName": "StrategyManager",
  "sourceName": "contracts/StrategyManager.sol",
  "abi": [
    {
      "anonymous": false,
      "inputs": [
        {
          "indexed": false,
          "internalType": "uint256",
          "name": "id",
          "type": "uint256"
        },
        {
          "indexed": true,
          "internalType": "address",
          "name": "owner",
          "type": "address"
        },
        {
          "indexed": false,
          "internalType": "string",
          "name": "name",
          "type": "string"
        }
      ],
      "name": "StrategyCreated",
      "type": "event"
    },
    {
      "anonymous": false,
      "inputs": [
        {
          "indexed": false,
          "internalType": "uint256",
          "name": "id",
          "type": "uint256"
        },
        {
          "indexed": false,
          "internalType": "bool",
          "name": "active",
          "type": "bool"
        }
      ],
      "name": "StrategyStatusChanged",
      "type": "event"
    },
    {
      "inputs": [
        {
          "internalType": "string",
          "name": "name",
          "type": "string"
        },
        {
          "internalType": "string",
          "name": "tokenPair",
          "type": "string"
        },
        {
          "internalType": "uint256",
          "name": "buyPrice",
          "type": "uint256"
        },
        {
          "internalType": "uint256",
          "name": "sellPrice",
          "type": "uint256"
        }
      ],
      "name": "createStrategy",
      "outputs": [],
      "stateMutability": "nonpayable",
      "type": "function"
    },
    {
      "inputs": [],
      "name": "getMyStrategies",
      "outputs": [
        {
          "components": [
            {
              "internalType": "uint256",
              "name": "id",
              "type": "uint256"
            },
            {
              "internalType": "address",
              "name": "owner",
              "type": "address"
            },
            {
              "internalType": "string",
              "name": "name",
              "type": "string"
            },
            {
              "internalType": "string",
              "name": "tokenPair",
              "type": "string"
            },
            {
              "internalType": "uint256",
              "name": "buyPrice",
              "type": "uint256"
            },
            {
              "internalType": "uint256",
              "name": "sellPrice",
              "type": "uint256"
            },
            {
              "internalType": "bool",
              "name": "active",
              "type": "bool"
            },
            {
              "internalType": "uint256",
              "name": "createdAt",
              "type": "uint256"
            }
          ],
          "internalType": "struct StrategyManager.Strategy[]",
          "name": "",
          "type": "tuple[]"
        }
      ],
      "stateMutability": "view",
      "type": "function"
    },
    {
      "inputs": [
        {
          "internalType": "uint256",
          "name": "",
          "type": "uint256"
        }
      ],
      "name": "strategies",
      "outputs": [
        {
          "internalType": "uint256",
          "name": "id",
          "type": "uint256"
        },
        {
          "internalType": "address",
          "name": "owner",
          "type": "address"
        },
        {
          "internalType": "string",
          "name": "name",
          "type": "string"
        },
        {
          "internalType": "string",
          "name": "tokenPair",
          "type": "string"
        },
        {
          "internalType": "uint256",
          "name": "buyPrice",
          "type": "uint256"
        },
        {
          "internalType": "uint256",
          "name": "sellPrice",
          "type": "uint256"
        },
        {
          "internalType": "bool",
          "name": "active",
          "type": "bool"
        },
        {
          "internalType": "uint256",
          "name": "createdAt",
          "type": "uint256"
        }
      ],
      "stateMutability": "view",
      "type": "function"
    },
    {
      "inputs": [],
      "name": "strategyCount",
      "outputs": [
        {
          "internalType": "uint256",
          "name": "",
          "type": "uint256"
        }
      ],
      "stateMutability": "view",
      "type": "function"
    },
    {
      "inputs": [
        {
          "internalType": "uint256",
          "name": "id",
          "type": "uint256"
        }
      ],
      "name": "toggleStrategy",
      "outputs": [],
      "stateMutability": "nonpayable",
      "type": "function"
    },
    {
      "inputs": [
        {
          "internalType": "address",
          "name": "",
          "type": "address"
        },
        {
          "internalType": "uint256",
          "name": "",
          "type": "uint256"
        }
      ],
      "name": "userStrategies",
      "outputs": [
        {
          "internalType": "uint256",
          "name": "",
          "type": "uint256"
        }
      ],
      "stateMutability": "view",
      "type": "function"
    }
  ],
  "bytecode": "0x608060405260008055348015601357600080fd5b506114bd806100236000396000f3fe608060405234801561001057600080fd5b50600436106100625760003560e01c806322068b44146100675780633e9f9e49146100855780638534e787146100b557806392e5cd51146100d3578063d574ea3d146100ef578063fede251c14610126575b600080fd5b61006f610142565b60405161007c91906109ec565b60405180910390f35b61009f600480360381019061009a9190610aa5565b610148565b6040516100ac91906109ec565b60405180910390f35b6100bd610179565b6040516100ca9190610d27565b60405180910390f35b6100ed60048036038101906100e89190610e7e565b61049c565b005b61010960048036038101906101049190610f1d565b61069a565b60405161011d989796959493929190610fb2565b60405180910390f35b610140600480360381019061013b9190610f1d565b61081f565b005b60005481565b6002602052816000526040600020818154811061016457600080fd5b90600052602060002001600091509150505481565b60606000600260003373ffffffffffffffffffffffffffffffffffffffff1673ffffffffffffffffffffffffffffffffffffffff16815260200190815260200160002080548060200260200160405190810160405280929190818152602001828054801561020657602002820191906000526020600020905b8154815260200190600101908083116101f2575b505050505090506000815167ffffffffffffffff81111561022a57610229610d53565b5b60405190808252806020026020018201604052801561026357816020015b610250610976565b8152602001906001900390816102485790505b50905060005b825181101561049357600160008483815181106102895761028861103e565b5b6020026020010151815260200190815260200160002060405180610100016040529081600082015481526020016001820160009054906101000a900473ffffffffffffffffffffffffffffffffffffffff1673ffffffffffffffffffffffffffffffffffffffff1673ffffffffffffffffffffffffffffffffffffffff16815260200160028201805461031b9061109c565b80601f01602080910402602001604051908101604052809291908181526020018280546103479061109c565b80156103945780601f1061036957610100808354040283529160200191610394565b820191906000526020600020905b81548152906001019060200180831161037757829003601f168201915b505050505081526020016003820180546103ad9061109c565b80601f01602080910402602001604051908101604052809291908181526020018280546103d99061109c565b80156104265780601f106103fb57610100808354040283529160200191610426565b820191906000526020600020905b81548152906001019060200180831161040957829003601f168201915b5050505050815260200160048201548152602001600582015481526020016006820160009054906101000a900460ff1615151515815260200160078201548152505082828151811061047b5761047a61103e565b5b60200260200101819052508080600101915050610269565b50809250505090565b6000808154809291906104ae906110fc565b919050555060405180610100016040528060005481526020013373ffffffffffffffffffffffffffffffffffffffff1681526020018581526020018481526020018381526020018281526020016001151581526020014281525060016000805481526020019081526020016000206000820151816000015560208201518160010160006101000a81548173ffffffffffffffffffffffffffffffffffffffff021916908373ffffffffffffffffffffffffffffffffffffffff160217905550604082015181600201908161058291906112f0565b50606082015181600301908161059891906112f0565b506080820151816004015560a0820151816005015560c08201518160060160006101000a81548160ff02191690831515021790555060e08201518160070155905050600260003373ffffffffffffffffffffffffffffffffffffffff1673ffffffffffffffffffffffffffffffffffffffff16815260200190815260200160002060005490806001815401808255809150506001900390600052602060002001600090919091909150553373ffffffffffffffffffffffffffffffffffffffff167ff97037ab8de581c76632820e16e1f65d91c7f1b4e7f8568cb8101ce80ce680b66000548660405161068c9291906113c2565b60405180910390a250505050565b60016020528060005260406000206000915090508060000154908060010160009054906101000a900473ffffffffffffffffffffffffffffffffffffffff16908060020180546106e99061109c565b80601f01602080910402602001604051908101604052809291908181526020018280546107159061109c565b80156107625780601f1061073757610100808354040283529160200191610762565b820191906000526020600020905b81548152906001019060200180831161074557829003601f168201915b5050505050908060030180546107779061109c565b80601f01602080910402602001604051908101604052809291908181526020018280546107a39061109c565b80156107f05780601f106107c5576101008083540402835291602001916107f0565b820191906000526020600020905b8154815290600101906020018083116107d357829003601f168201915b5050505050908060040154908060050154908060060160009054906101000a900460ff16908060070154905088565b803373ffffffffffffffffffffffffffffffffffffffff166001600083815260200190815260200160002060010160009054906101000a900473ffffffffffffffffffffffffffffffffffffffff1673ffffffffffffffffffffffffffffffffffffffff16146108c4576040517f08c379a00000000000000000000000000000000000000000000000000000000081526004016108bb9061143e565b60405180910390fd5b6001600083815260200190815260200160002060060160009054906101000a900460ff16156001600084815260200190815260200160002060060160006101000a81548160ff0219169083151502179055507f117d41a1d5602c897db608b571e0283432299d388c38a9c8d5cfad580d53fb8c826001600085815260200190815260200160002060060160009054906101000a900460ff1660405161096a92919061145e565b60405180910390a15050565b60405180610100016040528060008152602001600073ffffffffffffffffffffffffffffffffffffffff16815260200160608152602001606081526020016000815260200160008152602001600015158152602001600081525090565b6000819050919050565b6109e6816109d3565b82525050565b6000602082019050610a0160008301846109dd565b92915050565b6000604051905090565b600080fd5b600080fd5b600073ffffffffffffffffffffffffffffffffffffffff82169050919050565b6000610a4682610a1b565b9050919050565b610a5681610a3b565b8114610a6157600080fd5b50565b600081359050610a7381610a4d565b92915050565b610a82816109d3565b8114610a8d57600080fd5b50565b600081359050610a9f81610a79565b92915050565b60008060408385031215610abc57610abb610a11565b5b6000610aca85828601610a64565b9250506020610adb85828601610a90565b9150509250929050565b600081519050919050565b600082825260208201905092915050565b6000819050602082019050919050565b610b1a816109d3565b82525050565b610b2981610a3b565b82525050565b600081519050919050565b600082825260208201905092915050565b60005b83811015610b69578082015181840152602081019050610b4e565b60008484015250505050565b6000601f19601f8301169050919050565b6000610b9182610b2f565b610b9b8185610b3a565b9350610bab818560208601610b4b565b610bb481610b75565b840191505092915050565b60008115159050919050565b610bd481610bbf565b82525050565b600061010083016000830151610bf36000860182610b11565b506020830151610c066020860182610b20565b5060408301518482036040860152610c1e8282610b86565b91505060608301518482036060860152610c388282610b86565b9150506080830151610c4d6080860182610b11565b5060a0830151610c6060a0860182610b11565b5060c0830151610c7360c0860182610bcb565b5060e0830151610c8660e0860182610b11565b508091505092915050565b6000610c9d8383610bda565b905092915050565b6000602082019050919050565b6000610cbd82610ae5565b610cc78185610af0565b935083602082028501610cd985610b01565b8060005b85811015610d155784840389528151610cf68582610c91565b9450610d0183610ca5565b925060208a01995050600181019050610cdd565b50829750879550505050505092915050565b60006020820190508181036000830152610d418184610cb2565b905092915050565b600080fd5b600080fd5b7f4e487b7100000000000000000000000000000000000000000000000000000000600052604160045260246000fd5b610d8b82610b75565b810181811067ffffffffffffffff82111715610daa57610da9610d53565b5b80604052505050565b6000610dbd610a07565b9050610dc98282610d82565b919050565b600067ffffffffffffffff821115610de957610de8610d53565b5b610df282610b75565b9050602081019050919050565b82818337600083830152505050565b6000610e21610e1c84610dce565b610db3565b905082815260208101848484011115610e3d57610e3c610d4e565b5b610e48848285610dff565b509392505050565b600082601f830112610e6557610e64610d49565b5b8135610e75848260208601610e0e565b91505092915050565b60008060008060808587031215610e9857610e97610a11565b5b600085013567ffffffffffffffff811115610eb657610eb5610a16565b5b610ec287828801610e50565b945050602085013567ffffffffffffffff811115610ee357610ee2610a16565b5b610eef87828801610e50565b9350506040610f0087828801610a90565b9250506060610f1187828801610a90565b91505092959194509250565b600060208284031215610f3357610f32610a11565b5b6000610f4184828501610a90565b91505092915050565b610f5381610a3b565b82525050565b600082825260208201905092915050565b6000610f7582610b2f565b610f7f8185610f59565b9350610f8f818560208601610b4b565b610f9881610b75565b840191505092915050565b610fac81610bbf565b82525050565b600061010082019050610fc8600083018b6109dd565b610fd5602083018a610f4a565b8181036040830152610fe78189610f6a565b90508181036060830152610ffb8188610f6a565b905061100a60808301876109dd565b61101760a08301866109dd565b61102460c0830185610fa3565b61103160e08301846109dd565b9998505050505050505050565b7f4e487b7100000000000000000000000000000000000000000000000000000000600052603260045260246000fd5b7f4e487b7100000000000000000000000000000000000000000000000000000000600052602260045260246000fd5b600060028204905060018216806110b457607f821691505b6020821081036110c7576110c661106d565b5b50919050565b7f4e487b7100000000000000000000000000000000000000000000000000000000600052601160045260246000fd5b6000611107826109d3565b91507fffffffffffffffffffffffffffffffffffffffffffffffffffffffffffffffff8203611139576111386110cd565b5b600182019050919050565b60008190508160005260206000209050919050565b60006020601f8301049050919050565b600082821b905092915050565b6000600883026111a67fffffffffffffffffffffffffffffffffffffffffffffffffffffffffffffffff82611169565b6111b08683611169565b95508019841693508086168417925050509392505050565b6000819050919050565b60006111ed6111e86111e3846109d3565b6111c8565b6109d3565b9050919050565b6000819050919050565b611207836111d2565b61121b611213826111f4565b848454611176565b825550505050565b600090565b611230611223565b61123b8184846111fe565b505050565b5b8181101561125f57611254600082611228565b600181019050611241565b5050565b601f8211156112a45761127581611144565b61127e84611159565b8101602085101561128d578190505b6112a161129985611159565b830182611240565b50505b505050565b600082821c905092915050565b60006112c7600019846008026112a9565b1980831691505092915050565b60006112e083836112b6565b9150826002028217905092915050565b6112f982610b2f565b67ffffffffffffffff81111561131257611311610d53565b5b61131c825461109c565b611327828285611263565b600060209050601f83116001811461135a5760008415611348578287015190505b61135285826112d4565b8655506113ba565b601f19841661136886611144565b60005b828110156113905784890151825560018201915060208501945060208101905061136b565b868310156113ad57848901516113a9601f8916826112b6565b8355505b6001600288020188555050505b505050505050565b60006040820190506113d760008301856109dd565b81810360208301526113e98184610f6a565b90509392505050565b7f4e6f74207374726174656779206f776e65720000000000000000000000000000600082015250565b6000611428601283610f59565b9150611433826113f2565b602082019050919050565b600060208201905081810360008301526114578161141b565b9050919050565b600060408201905061147360008301856109dd565b6114806020830184610fa3565b939250505056fea2646970667358221220c4acd34aec06791e0abcc99ad9fcbb0275f0574450ba5dc3f05dbe2874d7095764736f6c634300081c0033",
  "linkReferences": {},
  "deployedLinkReferences": {}
}